:100000000C9490020C94DB100C94D7020C94D70241
:100010000C94D7020C94D7020C94D7020C94D702FC
:100020000C94D7020C94D7020C9402240C94D42480
:100030000C94131E0C94D7020C94D7020C94D70284
:100040000C94D7020C94D7020C94D7020C94D702CC
:100050000C94D7020C947B1E0C94D7020C94D702FC
:100060000C94D7020C94D7020C94D7020C94D702AC
:100070000C94D7020C94D7020C94D7020C94D7029C
:100080000C94D7020C94D7020C94D7020C94D7028C
:100090000C94D7020C94D7020C94D7020C94D7027C
:1000A0000C94D7020C94D7020C94D702B504B70471
:1000B000C204B904BB04BD04BF04C104C404C60423
:1000C000C804D304CA04CC04CE04D004D204D5049A
:1000D00075147514A714A714E514271627162716E8
:1000E00003152716A615A615171627162716201668
:1000F000B315B315B315B315B315B315B315B315C0
:10010000B315B315B315B315B315B315B315B315AF
:10011000C415D215D915E015EA15B616B616C816C7
:10012000C816BF16C816C816C816B616B616C41610
:10013000C816C816C416412568256026682560269D
:10014000B425D72560262E263D2607634236B79B69
:10015000D8A71A39685618AEBAAB558C1D3CB7CC27
:100160005763BD6DEDFD753EF6177231BF0000009F
:10017000803F05A84CCDB2D44EB93836A9020C50F8
:10018000B9918688083CA6AAAA2ABE000000803F32
:10019000165C1E001F00200021002200230000002A
:1001A0002B0014001A0008001500170000000000C2
:1001B000390004001600070009000A0000000000D2
:1001C000E10000001D001B000600190005000000F2
:1001D000E000E300E20000002C00000001510000FC
:1001E000000000000000000000000000000000000F
:1001F00024002500260027002D002E004C002A0098
:100200001C0018000C00120013002F0030003100F9
:100210000B000D000E000F0033003400000028001A
:10022000110010003600370000003800E5005200D1
:100230002C002A000000E600E70001000151E40064
:1002400000000000000000000000000000000000AE
:1002500001003A003B003C003D003E003F00000032
:100260000100010001005200010001000000000037
:1002700001000100500051004F000100000000008B
:100280000100000001000100010001000100000068
:10029000E00001000100000001000000010000007A
:1002A000000000000000000000000000000000004E
:1002B0004000410042004300440045004C004C0017
:1002C0000100010001000100010001000100010026
:1002D0000100010001000100010001000000010017
:1002E0000100010001000100000001000100010007
:1002F00001000100000001000100010001000100F7
:1003000000000000000000000000000000000000ED
:1003100000047F3F1F643214643214783C1E1E14A4
:100320000A056801F000B40078005A0000000000DF
:1003300000010101010101010101020202020202A8
:10034000020202030303030303030304040404047B
:10035000040505050505060606060607070707083E
:100360000808080909090A0A0A0A0B0B0B0C0C0CED
:100370000D0D0D0E0E0F0F0F101011111112121383
:10038000131414151516161717181819191A1A1BFD
:100390001C1C1D1D1E1F1F20202122222324252559
:1003A00026272728292A2B2B2C2D2E2F2F30313290
:1003B00033343536363738393A3B3C3D3E3F4041A1
:1003C000424344464748494A4B4C4D4F5051525383
:1003D000555657585A5B5C5E5F6062636466676936
:1003E0006A6C6D6E707173747678797B7C7E8081B7
:1003F000838486888A8B8D8F91929496989A9B9D00
:100400009FA1A3A5A7A9ABADAFB1B3B5B7B9BBBD0C
:10041000BFC1C4C6C8CACCCFD1D3D6D8DADCDFE1DD
:10042000E4E6E8EBEDF0F2F5F7FAFCFF0403300048
:10043000000014035100750065006600720065003D
:100440006E006300790000000E034B00650065003C
:10045000620069006F0000000403090409023B0008
:10046000020100A0FA0904000001030101000921B2
:10047000110100012240000705810308000A090458
:1004800001000103000000092111010001223600D2
:100490000705820320000A12011001000000081065
:1004A000CB571200010102030105010980A101855A
:1004B000031601002603001A81002A830075109597
:1004C000018100C0050C0901A10185041601002667
:1004D0009C021A01002A9C02751095018100C0053A
:1004E000010906A101050719E029E7150025019575
:1004F0000875018102950175088101050819012916
:10050000059505750191029501750391010507197E
:100510000029FF150026FF00950675088100C00020
:1005200011241FBECFEFDAE0DEBFCDBF04B603FE5D
:1005300027C08091770290917802A0917902B091C2
:100540007A028730904BA740B04BD1F410927702DB
:10055000109278021092790210927A0214BE84B737
:10056000877F84BF0FB6F894A8958091600088615A
:1005700080936000109260000FBEE0E0F8E3099500
:1005800011E0A0E0B1E0E4ECF4E502C005900D92CA
:10059000A833B107D9F722E0A8E3B1E001C01D926A
:1005A000A737B207E1F70E942A210C94602A0C9425
:1005B00000000C94F80781E0089581E008950C9400
:1005C000DD020E940E1D811102C00E947C1D0C9450
:1005D000D9020C94F60708950C94EB020C94EC02EB
:1005E00008950E94A2160E94F0022FEF84E39CE07F
:1005F000215080409040E1F700C0000087E797E776
:1006000090930108809300080C94A11EFF920F9311
:100610001F93CF93DF938C01FC01C081D181809126
:100620009701811113C08281882349F0CE010E9475
:10063000011CF82E682FCE010E94AA1B04C0CE0117
:100640000E94D51BF82EBE018F2D04C0CE010E9442
:10065000011CBE010E948505EC01B8010E94DF0269
:10066000882309F447C2CC3CFCE5DF0709F4DCC071
:10067000E8F5C43C9CE5D90709F4A0C0F8F4C531FD
:10068000FCE5DF0778F4C2308CE5D80708F04BC1F1
:10069000C1159CE5D90709F465C0C130DC4509F4F2
:1006A00069C01BC2C23CFCE5DF0709F476C008F054
:1006B0007BC0C631DC4509F4E9C10FC2F801828173
:1006C000C83CFCE5DF0709F49AC040F4C63CECE501
:1006D000DE0709F48AC008F480C08CC0CA3C9CE5DF
:1006E000D90709F496C008F48FC098C0C43DFCE552
:1006F000DF0709F4F3C0C0F4F8018281C03DFCE5D6
:10070000DF0709F4BDC040F4CE3CECE5DE0709F498
:100710009AC008F491C0A7C0C23D9CE5D90709F46E
:10072000CBC008F4BAC0D5C0C83DFCE5DF0709F46A
:1007300092C150F4F8018281C63DFCE5DF0709F45F
:1007400044C108F4DBC062C1CC3DECE5DE0709F42E
:10075000E1C0CD3DFCE5DF07C1F0CB3DDC4509F054
:10076000BCC1D1C0F8018281882309F4C3C10E94B1
:10077000F102C0C1F8018281882309F4BBC18091D4
:100780002102816080932102B5C1F8018281882312
:1007900009F4B0C10E947C1DADC1F80182818111B4
:1007A000A9C10E94EB0C1DC0F8018281882309F4C5
:1007B000A1C10E94D21C827251F00CC0F80182814A
:1007C000882309F497C10E94D21C827219F00E94FA
:1007D000820C07C00E94900C04C081118BC10E9442
:1007E000860B81E08093630185C1811183C10E94E2
:1007F000A90BF7CF81117EC10E94C90BF2CF8111E5
:1008000079C10E94E90BEDCF811174C10E94090CDE
:10081000E8CF81116FC10E94290CE3CF882309F42E
:1008200069C10E94460A66C1F8018281882309F4E1
:1008300061C10E945B0A5EC1882309F45BC181E04B
:100840000E94930CCECF882309F454C10E943D0A24
:10085000823038F00E943D0A853018F40E94820CE4
:1008600049C182E026C0882309F444C10E943D0AA0
:10087000863020F00E943D0A883080F386E019C05F
:10088000882309F437C10E943D0A893020F00E9474
:100890003D0A8E3018F389E00CC0882309F42AC180
:1008A0000E943D0A8F3020F00E943D0A8431B0F250
:1008B0008FE00E94930C1EC1882309F41BC10E9483
:1008C0003D0A853120F00E943D0A873138F285E1EA
:1008D000F0CF882309F40EC188E1EBCFF8018281C3
:1008E000882309F407C10E943D0A893128F00E943B
:1008F0003D0A823208F4B2CF89E1DBCF882309F4C4
:10090000F9C083E2D6CFF8018281882309F4F2C0CE
:1009100080E006C0F8018281882309F4EBC082E000
:100920000E94C921E7C0F8018281882309F4DAC056
:100930000E940E1D811102C00E947C1D0E94211D7B
:1009400090E09093690280936802FE01E350FC45B9
:10095000E231F10530F4EA5AFF4F809168020C94BD
:10096000052A80916802816027C0826025C084606A
:1009700023C0806121C080621FC080641DC0806868
:100980001BC08460886018C08E7F16C08D7F14C025
:100990008B7F12C08F7E10C08F7D0EC08F7B0CC0EE
:1009A0008F770AC08B7F877F07C087FB222720F9BC
:1009B00091E0922790FB87F980936802809168020A
:1009C0000E94251D0E94A21695C0882351F0109206
:1009D0003D010E94451E90933A018093390182E0C7
:1009E00020C080913D0181110FC08091390190910B
:1009F0003A010E94511E883C910530F486E20E9423
:100A0000B11286E20E94D31382E022C0882361F0F3
:100A100010923E010E94451E90933C0180933B0141
:100A200080E20E94321466C080913E0181110FC0A5
:100A300080913B0190913C010E94511E883C9105A0
:100A400030F487E20E94B11287E20E94D31380E261
:100A50000E9439144FC0F80182818111D9CF809151
:100A60003E018111F4CF80913B0190913C010E94A5
:100A7000511E883C910558F780E20E94391488E2A3
:100A80000E94B11288E20E94D31334C00E94D21C8B
:100A9000982FF80182812091160130911701882347
:100AA00079F09A7A81E009F480E08093380191111D
:100AB00002C069E201C065E3C9010E94B11D0AC01C
:100AC00080913801811102C069E201C065E3C9016A
:100AD0000E94B31D0E949F1C0DC081E080933D01C8
:100AE00080933E01C801DF91CF911F910F91FF903C
:100AF0000C94DB0280E0DF91CF911F910F91FF906A
:100B0000089580E090E008950895E72FF0E09CE0DC
:100B1000899FE00DF11D112483E0EE0FFF1F8A95E0
:100B2000E1F7E60FF11DEE0FFF1FE057FE4F859135
:100B300094910895880F991FFC01E05FFC4F859107
:100B400094910895CF93DF930E9485050E945407E6
:100B5000EC018115904508F041C0C11580E4D8072B
:100B600008F024C1C83ED10510F5C03ED10508F0FB
:100B700097C1C83AD10578F4C53AD10508F09EC0AE
:100B8000C130D10509F48CC108F43DC1C430D10590
:100B900008F086C138C1CF3BD10508F49AC0C03CEB
:100BA000D10508F430C1CE01805C9109F1C0C115B6
:100BB00090E2D90758F4C11521E0D20708F070C1BE
:100BC000C03FD10508F41FC1D0656AC1C11580E3DB
:100BD000D80708F0E1C0CE019F70DAC0C11595E5D5
:100BE000D90708F044C0C11524E5D20708F0F5C0C4
:100BF000C11582E5D80710F5C11591E5D90708F0B0
:100C0000D8C0CE0174E0969587957A95E1F7282FA4
:100C100023703C2F337081E090E002C0880F991F51
:100C20003A95E2F79C68922BCF70C695C69520E264
:100C3000C29FE0011124C82BD92B32C19E01237021
:100C400033278C2F86958695C115D34508F0B6C0FD
:100C5000C1E0D0E002C0CC0FDD1F2A95E2F720E210
:100C6000829FC0011124C82BD92BDC6819C1C11582
:100C700029E5D20780F4C11588E5D80708F0B2C08D
:100C8000C11596E5D90708F0BEC0CF71DD27DC2F6E
:100C9000CC27D06205C1CE01C1152AE5D20708F4E0
:100CA000A6C090568115904208F0ADC08D2F8F716F
:100CB0000E94D007DD27D0628F71A3C0C53AD1054D
:100CC00009F4A4C0C63AD10509F0A3C0C2E8D0E433
:100CD000E7C0C83AD10509F49FC0C93AD10509F463
:100CE0009EC0CA3AD10509F49DC0CB3AD10509F49A
:100CF0009CC0CC3AD10509F49BC0CB3BD10509F48B
:100D00009AC0CC3BD10509F499C0CD3AD10509F47C
:100D100098C0C03BD10509F497C0CE3AD10509F47B
:100D200096C0CF3AD10509F495C0C13BD10509F46D
:100D300094C0C23BD10509F493C0C33BD10509F46B
:100D400092C0C43BD10509F491C0C53BD10509F45B
:100D500090C0C63BD10509F48FC0C73BD10509F44B
:100D60008EC0C83BD10509F48DC0C93BD10509F43B
:100D70008CC0CD3BD10509F48BC0CE3BD10509F425
:100D80008AC0CA3BD10509F489C0C0E0D4E488C058
:100D90000E949A05EC0184C0CE019927D3FF03C0BD
:100DA000EC01D86C7DC0EC01D06C7AC0DF70D06AE9
:100DB00077C0DC2FCC27C16FD06A72C0C1E0D0E011
:100DC00002C0CC0FDD1F2A95E2F720E2829FC0010E
:100DD0001124C82BD92BDA6863C0DC2FCC27C46F51
:100DE000D06A5EC0DC2FCC27C06FD06A59C024E027
:100DF000969587952A95E1F78F70CF70C06ED0E0F9
:100E0000D06AD82B4DC0C0E0D0E04AC0C1E8D0E4E1
:100E100047C0C3E8D0E444C0C2EED4E441C0C9EE48
:100E2000D4E43EC0CAEED4E43BC0C5EBD4E438C041
:100E3000C6EBD4E435C0C3EBD4E432C0C4EBD4E495
:100E40002FC0C7EBD4E42CC0CCECD4E429C0CDEC4B
:100E5000D4E426C0C3E8D5E423C0CAE8D5E420C062
:100E6000C2E9D5E41DC0C4E9D5E41AC0C1E2D6E4A4
:100E700017C0C3E2D6E414C0C4E2D6E411C0C5E290
:100E8000D6E40EC0C6E2D6E40BC0C7E2D6E408C082
:100E9000CFE6D4E405C0C0E7D4E402C0CAE2D6E499
:100EA000CE01DF91CF9108958238910549F1B0F4D8
:100EB0008133910509F459C048F48932910509F448
:100EC0004FC08A32910509F455C0089585339105C4
:100ED00009F441C08933910599F00895833E910545
:100EE00031F138F4803E910591F0823E9105A9F0F0
:100EF0000895863E910501F1873E910539F10895E7
:100F00002091680220FD3BC021FD39C008958091E9
:100F1000680280FF34C089E341C08091680282FF8B
:100F200030C08091680284FD2EC083EE37C080916E
:100F3000680282FD26C0F5CF8091680283FF25C03C
:100F40008091680284FD1FC087EE28C080916802EE
:100F500083FD1BC0F5CF8091680285FD18C019C0C4
:100F60008091680285FD15C012C08091680286FDDF
:100F700012C013C08091680286FD0FC00CC080EEC5
:100F80000DC082EE0BC080E009C086EE07C089E28A
:100F900005C085E303C08AE201C081E390E00895C3
:100FA0009091680292FF0DC0282F2871283019F403
:100FB000877F846006C0282F2471243011F48B7F32
:100FC000886093FF0DC0282F2871283119F4877E7F
:100FD000846106C0282F2471243111F48B7E88612E
:100FE00094FD877E089508950C94F3070C94F407FC
:100FF0000C94F307CF93DF93809121028360886084
:101000008093210280910801ABE2B1E041E351E01D
:1010100061E070E08D91E82FE295EF70F0E021A1A2
:101020008F70EB0102C0CC0FDD1F8A95E2F7CE0175
:101030009C2F9095922391A392A1892B82A34A176A
:101040005B0741F7A3E2B1E04BE251E061E070E001
:101050008D91E82FE295EF70F0E021A18F70EB0108
:1010600002C0CC0FDD1F8A95E2F7CE019C2F909530
:10107000922391A392A1892B82A34A175B0741F780
:10108000E6E4F1E0A3E5B1E082E591E011921D9282
:101090008E179F07D9F7DF91CF910C94E1024F9201
:1010A0005F926F927F928F929F92AF92BF92CF92F8
:1010B000DF92EF92FF920F931F93CF93DF93809174
:1010C0000801811103C006E010E002C000E010E05A
:1010D0002BE2C22E21E0D22EA8014D5A5E4F7A019A
:1010E000EA01AA24A394B12C77247394BE018880CA
:1010F0001882D6018D916D01E82FE295EF70F0E036
:1011000022A18F70A50102C0440F551F8A95E2F7F6
:10111000CA01942E9094292122A321A1242B21A33A
:1011200050EA5A95F1F793E2492E91E0592E40E0AA
:1011300050E0D2016D902D01262D22952F7030E0C8
:10114000D90190962C9130E0B62DBF7002C0359534
:101150002795BA95E2F720FD07C09501042E01C03E
:10116000220F0A94EAF702C020E030E03881232BF6
:1011700028834F5F5F4F48305105D9F691A19922DE
:1011800091A292A1892B82A32196FB0180818816CE
:1011900041F070925F010E94451E9093610180931F
:1011A0006001F1E3CF16F1E0DF0609F09FCF8091F7
:1011B0005F018823A9F080916001909161010E94F4
:1011C000511E069768F0F801EA5BFE4F80E0D701F8
:1011D0009D917D0191938F5F8630C9F710925F01D9
:1011E00081E0DF91CF911F910F91FF90EF90DF9001
:1011F000CF90BF90AF909F908F907F906F905F90B7
:101200004F90089561E070E080E091E00C948D10C3
:1012100061E070E080E091E00C949410CF93DF9354
:1012200080910801811103C0C0E0D0E002C0C6E097
:10123000D0E00E942C11009779F4CA5BDE4F20E0C9
:1012400030E0F901E05CFE4F408149932F5F3F4F52
:1012500026303105B1F702C081E090E0DF91CF91F7
:101260000895CF930E944F08C82F0E940E09892B22
:10127000D1F0809152018F5F809352018630A8F0A7
:1012800080910801811103C0E0E0F0E002C0E6E0D7
:10129000F0E0EA5BFE4F80E090E01192019686302C
:1012A0009105D9F702C0109252010E94E9028C2FD9
:1012B000CF9108950E944F0880910801811103C0C9
:1012C000E6E0F0E002C0E0E0F0E0EA5BFE4F80E044
:1012D00090E02191DC01A05CBE4F2C9301968630FA
:1012E0009105B9F70C94F307E82FF0E0EA5BFE4FA5
:1012F000808108950895E8EDF0E080818061808329
:101300008AE18A95F1F700C08091D9008170089533
:10131000529889B182FB882780F9809308010E9446
:101320007B09882331F00E94020981E080936201E9
:1013300004C00E943C1E0E940809789408950E94EF
:10134000FA070E94A20C0E945A09FDCF0E94880948
:101350000E947B09811102C00E949F090895EF92AB
:10136000FF920F931F93CF93DF93E901662309F454
:101370004BC0242F30E0EFEFF0E0E61BF109B9019C
:10138000E69F9001E79F300DF69F300D1124232F2B
:101390008B01031B11095CE3E52EF12CB7010E94C0
:1013A000DD29FB01BC01069FC001079F900D169F20
:1013B000900D1124B7010E94DD29E230F105B1F052
:1013C00040F4309779F0319711F5832F242F461B85
:1013D00021C0E430F105A1F068F03597C1F4842F05
:1013E000861B18C0832F262F230F14C0862F830F30
:1013F000E42F03C0E42FE61B842F432F2E2F0AC0B7
:10140000842F462F430F06C0842F242F03C080E073
:1014100020E040E0E42FF0E0E45DFC4F4491E22F57
:10142000F0E0E45DFC4F9491E82FF0E0E45DFC4FC8
:10143000E49149839883EA83DF91CF911F910F91C3
:10144000FF90EF90089588E090E00C94202AAB0183
:10145000BC0188E090E00C943E2AEFE2F2E083E0E9
:101460008083109230028FEF8283838314826081A5
:101470007181828193810C94270A80912F0280FFD1
:1014800003C086958F73089580E00895809133029C
:1014900090E001968430910514F083E090E0809311
:1014A000330260912F02709130028091310290914D
:1014B00032020C94270A8091330290E0019797FF43
:1014C00002C080E090E08430910514F083E090E069
:1014D0008093330260912F0270913002809131022B
:1014E000909132020C94270A80912F0280FF06C04F
:1014F00060E170E084E392E00C942F10E4E3F2E00A
:10150000118210821282339682E0E436F807C1F726
:10151000EFCF90912F0290FF0CC0E4E3F2E08183C3
:1015200060834283339692E0E436F907C1F70C9466
:10153000740A0895CF93DF9300D01F92CDB7DEB722
:1015400020912F0220FF0AC09E012F5F3F4F0E9473
:10155000AF094B8169818A810E94890A0F900F909F
:101560000F90DF91CF9108955F926F927F928F924B
:101570009F92AF92BF92CF92DF92EF92FF920F9322
:101580001F93CF93DF9300D01F92CDB7DEB78C01AE
:10159000E62EF42E522E80912F0280FF8BC0982FC2
:1015A0009E77923061F49E012F5F3F4FC8010E94E9
:1015B000AF094B8169818A810E94890A5BC0E82F4B
:1015C000E695EF739EE39E0F9F73943018F4F090AE
:1015D000320250C09AE39E0F9F73993068F4881FBF
:1015E0008827881F90913002292F220F022F082B65
:1015F00097FB112710F93EC087E28E0F8F738A3058
:10160000C8F5F0E07997E0FD02C021E001C02FEFBE
:10161000EE7FEE5DFC4F85919491AC0184E0569590
:1016200047958A95E1F724034001259F900C1124EA
:10163000580188E9A81A8EEFB80A94E3C92E92E0FF
:10164000D92E28E6622E77247394C501B3010E9437
:10165000DD2996014F2D6E2D0E94AF09A80CB91CF3
:1016600083E0C80ED11C84E6C81682E0D80669F76C
:101670000E94740A80912F0200FB87F980932F0249
:10168000902F9695809130028078892B10FB87F9F6
:1016900080933002E0923102F0923202552051F0F4
:1016A00060912F027091300280913102909132024C
:1016B0000E94270A0F900F900F90DF91CF911F91FA
:1016C0000F91FF90EF90DF90CF90BF90AF909F90E1
:1016D0008F907F906F905F900895282FEFE2F2E057
:1016E0003081331F3327331F40913002542F550F61
:1016F000852F832B47FB992790F90A9668E671E0BE
:101700000E94F129438162810C94B40A81E00C9417
:101710006D0B282F30912F02331F3327331F409139
:101720003002542F550F852F832B47FB992790F9B3
:101730008A3091051CF4825A9E4F05C00A9768E6CC
:1017400071E00E94F12940913202609131020C94C3
:10175000B40A81E00C94890B60913102262F30E0AD
:101760002F3E310514F46F5E01C06FEF30912F02F0
:10177000331F3327331F90913002592F550F97FB9A
:10178000992790F9282F40913202852F832B0C94B2
:10179000B40A81E00C94AC0B60913102262F30E04A
:1017A0002131310514F0615101C060E030912F0208
:1017B000331F3327331F90913002592F550F97FB5A
:1017C000992790F9282F40913202852F832B0C9472
:1017D000B40A81E00C94CC0B40913202242F30E00B
:1017E0002F3E310514F44F5E01C04FEF30912F02B0
:1017F000331F3327331F90913002592F550F97FB1A
:10180000992790F9282F60913102852F832B0C9412
:10181000B40A81E00C94EC0B40913202242F30E0AA
:101820002131310514F0415101C040E030912F02C7
:10183000331F3327331F90913002592F550F97FBD9
:10184000992790F9282F60913102852F832B0C94D2
:10185000B40A81E00C940C0C20E00C94B40ACF93F1
:1018600090912F0290FF40C09178811102C0926048
:1018700007C0853210F0986403C08F73880F982BCF
:1018800090932F02662351F060912F0270913002E5
:1018900080913102909132020E94270AC0912F025A
:1018A0006C2F66956F7370E04BE050E08BE091E039
:1018B0000E940B2A892B19F01092810103C081E04C
:1018C00080938101CC1FCC27CC1F90913002892FAF
:1018D000880F97FB992790F940913202609131026D
:1018E0008C2BCF910C942C0CCF910895682F909154
:1018F0002F0296959F7381E0890F853208F081E071
:101900000C942F0C81E00C94760C682F90912F0290
:1019100096959F738FEF890F09F484E20C942F0C36
:1019200081E00C94850C61E00C942F0CEFE2F2E066
:1019300080818160808386958F730C94930C60E026
:101940000C942F0C809121028160809321020E94CF
:101950000E1D811104C00E947C1D0E942D0A0E9450
:10196000230A60932F027093300280933102909388
:1019700032026E7761F40E942D0A0E94230A60935E
:101980002F0270933002809331029093320281E0F3
:101990008093810180912F0280FF04C086958F7310
:1019A0000C949F0C0895EFE2F2E080818E7F80839B
:1019B00060817181828193810E94270A1092810146
:1019C0002FEF80E792E0215080409040E1F700C087
:1019D00000000C94740A80912F0280FD0C94D30CAB
:1019E0000C94960CCF93C82F80917F019091800129
:1019F0000E94511EEC2FF0E0E25EFC4FE491F0E01B
:101A00008E179F0708F443C00E94451E90938001E3
:101A100080937F0160917E0170E080E090E00E9401
:101A2000DE2720E030E04FE753E40E9401272BED52
:101A30003FE049E450E40E9407290E9474290E9473
:101A40007B272BE43AE34EE25FE30E94942620EFEB
:101A50003BEF48ED52E40E9407290E94AD27462F34
:101A600080912F02881F8827881F90913002292F8C
:101A7000220F97FB992790F960913102822B0E94E7
:101A80009A0A80917E0190E0019680937E01CF9129
:101A90000895CF93C82F80917C0190917D010E9481
:101AA000511EEC2FF0E0E55EFC4FE491F0E08E1764
:101AB0009F07E8F00E94451E90937D0180937C0172
:101AC000409132026091310280917A0190917B01C4
:101AD0000E949A0A80917A0190917B01019668E6B2
:101AE00071E00E94DD2990937B0180937A01CF9170
:101AF0000895CF92DF92FF920F931F93CF93DF93BE
:101B0000F82E80917801909179010E94511EEF2D5D
:101B1000E695F0E0E85EFC4FE491F0E08E179F0759
:101B2000C0F10E94451E909379018093780104E3EF
:101B300012E0C0E0D0E088E6C82EDD24D394809186
:101B40007601909177018C0F9D1FB6010E94DD29CF
:101B5000980140913202609131020E94AF0966966D
:101B60000D5F1F4FC03681E0D80749F70E94740A05
:101B70008091760190917701F0FE06C0019668E6AB
:101B800071E00E94DD2901C0019790937701809355
:101B90007601DF91CF911F910F91FF90DF90CF9051
:101BA0000895CF92DF92EF92FF920F931F93CF93FE
:101BB000DF93C82F80FF02C01FEF01C011E08091AA
:101BC0007401909175010E94511EC695EC2FF0E0B2
:101BD000EB5EFC4FE491F0E08E179F0708F458C0CD
:101BE0000E94451E9093750180937401C4E3D2E076
:101BF000E12CF12C198218821A8294E0C92ED12C82
:101C000000E080917301800F87FD805F082E000C3B
:101C1000990BE816F906E9F4809132028C9DA00137
:101C20008D9D500D1124559547955595479580915B
:101C30002F02881F8827881F90913002592F550F37
:101C400097FB992790F99E0160913102852B0E94A4
:101C5000AF09010F81E0C81AD10899F68FEFE81A91
:101C6000F80A239680E1E816F10421F60E94740A2E
:101C700080917301113031F4811102C08FE006C0F0
:101C8000815004C090E001968F7099278093730172
:101C9000DF91CF911F910F91FF90EF90DF90CF9048
:101CA00008950F931F93CF93DF93C82F80917101F5
:101CB000909172010E94511EEC2FF0E0EE5EFC4FFD
:101CC000E491F0E08E179F0708F456C00E94451E6D
:101CD0009093720180937101C4E3D2E0FE011182FE
:101CE00010821282339682E0E436F807C1F700E0F2
:101CF00010E080917001082E000C990B081719074D
:101D0000ECF080910A01082E000C990B80179107C6
:101D1000ACF080912F02881F8827881F9091300295
:101D2000592F550F97FB992790F99E014091320248
:101D300060913102852B0E94AF0903C0198218827D
:101D40001A820F5F1F4F23960031110591F60E94F2
:101D5000740A8091090190917001980F909370011D
:101D600020910A01280F20930A01121614F49F30C3
:101D70001CF0819580930901DF91CF911F910F9104
:101D80000895EF92FF920F931F93CF93DF9380916B
:101D90006E0190916F010E94511E883E9340D0F1D8
:101DA0000E94451E90936F0180936E01C0916C015B
:101DB000D0916D012196C170DD27D0936D01C09344
:101DC0006C0184E3E82E82E0F82E10E008E7812F12
:101DD0008695FE01E80FF11DCF01817099279701CB
:101DE0004091320260913102FC010E9FC0010F9FB1
:101DF000900D11240E94AF091F5FF3E0EF0EF11C5C
:101E0000103129F7DF91CF911F910F91FF90EF9043
:101E10000C94740ADF91CF911F910F91FF90EF9076
:101E20000895CF93DF9300D01F92CDB7DEB7809196
:101E30006A0190916B010E94511EE0E1F3E025914F
:101E4000349182179307C0F18091690181110CC010
:101E50009E012F5F3F4F4FEF6FEF80E090E00E94B9
:101E6000AF098A81809369010E94451E90936B019E
:101E700080936A0180916801813051F028F08230AE
:101E800061F4409169010AC08091690140E007C096
:101E90006091690140E080E003C040E080E060E0E4
:101EA0000E94890A8091680190E0019663E070E0E9
:101EB0000E94F129809368010F900F900F90DF919D
:101EC000CF9108950F931F93CF93DF938091660175
:101ED000909167010E94511E843F914008F448C0D0
:101EE0000E94451E9093670180936601C4E3D2E08F
:101EF00000E010E0209164013091650180912F0293
:101F000090913002083011051CF4232B79F002C0A7
:101F1000232B61F4881F8827881F592F550F97FBA3
:101F2000992790F99E01409132020AC0881F8827A4
:101F3000881F592F550F97FB992790F99E0140E074
:101F400060913102852B0E94AF090F5F1F4F2396CE
:101F50000031110579F60E94740A80916401909114
:101F600065010196817099279093650180936401C2
:101F7000DF91CF911F910F91089580918101882366
:101F8000D9F190912F02892F86958F732EE3280F18
:101F90002F73243018F482500C94F20C2AE3280F8B
:101FA0002F73233018F486500C94490D27E3280F23
:101FB0002F73263018F489500C94790D21E3280FE3
:101FC0002F73263018F48F500C94D10D2BE2280F6C
:101FD0002F73233018F485510C94510E892F8E776E
:101FE000803311F40C94C10E863411F40C94110F4B
:101FF000883411F40C94620F08952BB1342F30956E
:1020000023233BB1432B3FB7F894FC01680F791FA2
:10201000E617F70789F0819198E04BB9000000C0FE
:1020200087FF2BB9880F000000C000C000C02BB98B
:1020300000C09A9591F7ECCF3FBF08952AB1242BA9
:102040002AB99B01220F331F620F731F0E94FD0FDD
:1020500087EC90E00197F1F700C00000089548E098
:102060000C941E108EE1489B02C08150E1F7489B02
:10207000FECF0895589880E28A95F1F7589A08950E
:10208000FC012AE02A95F1F728E090E080E031E0B9
:1020900040E14A95F1F7880F489B02C08160932781
:1020A00000C0000040E14A95F1F7215089F720E196
:1020B0002A95F1F729B100C0000030E13A95F1F717
:1020C000217092272081920F90830895EF92FF92C2
:1020D0000F931F93CF93DF931F92CDB7DEB7198273
:1020E0008C017C01E60EF11C0E151F0551F00E94BB
:1020F0003210CE0101960E944010F80181938F01A9
:10210000F3CF81E09981911180E00F90DF91CF9121
:102110001F910F91FF90EF9008959093830180930A
:102120008201509A589A0895909383018093820176
:102130005098589AE89AE9E6F0E080818C7F808395
:102140000895615091E001C0990F6A95EAF720E087
:1021500031E0992361F0492F482319F0589A232739
:1021600001C0589840E24A95F1F79695F2CF2223A4
:1021700011F0589A01C0589880E28A95F1F7589862
:102180000895FF920F931F93CF93DF93EC018C017F
:10219000060F111DC017D10741F0F9900E943A10A7
:1021A00068E08F2D0E94A110F5CFDF91CF911F9194
:1021B0000F91FF9008951F920F920FB60F92112466
:1021C0002F933F934F935F936F937F938F939F933F
:1021D000AF93BF93CF93DF93EF93FF935898509AA9
:1021E000C0918201D09183016D81662321F08E819F
:1021F0009F810E94C1100E943A1080E18A95F1F7F8
:1022000058985098589A80E18A95F1F76A81662328
:1022100051F08B819C810E946610E881F9818111C7
:1022200004C082E003C0E881F98188E080830E94D5
:102230003210FF91EF91DF91CF91BF91AF919F91BC
:102240008F917F916F915F914F913F912F910F905F
:102250000FBE0F901F901895CF93DF93C09182010E
:10226000D0918301F894509A589885E08A95F1F7B7
:1022700000005098589A80E28A95F1F7489B0AC06E
:10228000509A589AE881F98181E08083789481E0BE
:1022900090E02CC06D81662381F08E819F810E9429
:1022A000661081110AC0509A589AE881F98182E03B
:1022B0008083789482E090E019C00E94321080E21E
:1022C0008A95F1F75898509A80E18A95F1F76A81DA
:1022D000662321F08B819C810E94C1100E943A10DC
:1022E000E881F9811082789480E090E0DF91CF91CD
:1022F000089590938901809388010895E091880161
:10230000F0918901309721F00190F081E02D09943E
:1023100080E00895E0918801F0918901309721F0E3
:102320000280F381E02D0994089520918601309177
:1023300087012817390771F09093870180938601F0
:10234000E0918801F0918901309721F00680F781B2
:10235000E02D09940895209184013091850128177A
:10236000390771F09093850180938401E091880191
:10237000F0918901309721F00084F185E02D0994D6
:10238000089585B7806885BF85B7806885BF089543
:102390000E94C1110C94A60981E008950E943C1E80
:1023A0000E94FA070E94B21E0C94A20CBF92CF9218
:1023B000DF92EF92FF920F931F93CF93DF93CDB7EE
:1023C000DEB72A970FB6F894DEBF0FBECDBF0E94CE
:1023D00031090E94CC11811111C08FEF89838A834A
:1023E0001B820E94451E8160782F9D838C834981CA
:1023F0005A816B818D810E947D1254C08BE8C82E5A
:1024000081E0D82E00E010E0B02E802F0E947409E9
:10241000E82EF60121916F01F82EF22631F40F5FBC
:102420001F4F0C30110581F7D8CF8091210281FD1B
:102430000E947A0980E090E02F2D30E0482FB9010A
:10244000082E02C0759567950A94E2F760FF25C0D3
:102450008E83BF8281E090E06C0102C0CC0CDD1C59
:102460004A95E2F72E2D30E02C213D21232B09F453
:1024700080E088870E94451E8160782F9A8789872F
:102480004E815F8168858A850E947D12F801E5573B
:10249000FE4F80818C25808305C001968830910590
:1024A00069F6BDCF0E947E1190918A018917A9F02B
:1024B0000E947E1180938A012A960FB6F894DEBF9F
:1024C0000FBECDBFDF91CF911F910F91FF90EF9085
:1024D000DF90CF90BF900C94EE022A960FB6F8943E
:1024E000DEBF0FBECDBFDF91CF911F910F91FF9047
:1024F000EF90DF90CF90BF900895CF93DF93CDB74B
:10250000DEB72B970FB6F894DEBF0FBECDBF4F835B
:10251000588769877A878B87DE01119686E0FD01EF
:1025200011928A95E9F785E0FE01379601900D92A8
:102530008A95E1F749815A816B817C818D819E81E9
:102540000E946F192B960FB6F894DEBF0FBECDBF59
:10255000DF91CF910895FC01808191810E94401C00
:102560000895CF93882309F41CC1C82F8238C1F481
:102570000E947E1181FD15C169E380911601909141
:1025800017010E94B11D0E949F1C2FEF81EE94E065
:10259000215080409040E1F700C0000069E319C07D
:1025A000833801F50E947E1180FDFBC063E58091B8
:1025B0001601909117010E94B11D0E949F1C2FEFE0
:1025C00081EE94E0215080409040E1F700C000008F
:1025D00063E580911601909117010E94B31DCF9180
:1025E0000C949F1C8438C1F40E947E1182FDD9C0D6
:1025F00067E480911601909117010E94B11D0E941D
:102600009F1C2FEF81EE94E0215080409040E1F735
:1026100000C0000067E4DDCF8CEF8C0F813A68F4D6
:102620008C2F0E94711F8111BCC06C2F80911601EC
:10263000909117010E94B11DD2CF80E28C0F88309B
:1026400048F4C77081E001C0880FCA95EAF70E947C
:10265000D51CC5CF8BE58C0F833078F4C53A29F0B3
:10266000C63A31F083E890E005C081E890E002C00E
:1026700082E890E0CF910C94951188E58C0F87311A
:1026800008F08FC0C83A09F445C0C93A09F445C0FA
:10269000CA3A09F445C0CB3A09F445C0CC3A09F42A
:1026A00045C0CB3B09F445C0CC3B09F445C0CD3A0D
:1026B00009F445C0C03B09F445C0CE3A09F445C011
:1026C000CF3A09F445C0C13B09F445C0C23B09F407
:1026D00045C0C33B09F445C0C43B09F445C0C53BF4
:1026E00009F445C0C63B09F445C0C73B09F445C0E1
:1026F000C83B09F445C0C93B09F445C0CD3B09F4CA
:1027000045C0CE3B09F445C0CA3B09F445C080E052
:1027100090E044C082EE90E041C089EE90E03EC07F
:102720008AEE90E03BC085EB90E038C086EB90E00D
:1027300035C083EB90E032C084EB90E02FC087EB94
:1027400090E02CC08CEC90E029C08DEC90E026C08D
:1027500083E891E023C08AE891E020C082E991E01B
:102760001DC084E991E01AC081E292E017C083E2C3
:1027700092E014C084E292E011C085E292E00EC0C3
:1027800086E292E00BC087E292E008C08FE690E01C
:1027900005C080E790E002C08AE292E0CF910C94FD
:1027A000AB11CF910895882309F45BC0682F82385C
:1027B00079F40E947E1181FF54C069E38091160173
:1027C000909117010E94B11D0E949F1C69E310C0E7
:1027D0008338B1F40E947E1180FF43C063E580918D
:1027E0001601909117010E94B11D0E949F1C63E584
:1027F00080911601909117010E94B31D0C949F1CAB
:10280000843879F40E947E1182FF2BC067E48091A6
:102810001601909117010E94B11D0E949F1C67E450
:10282000E7CF8CEF860F813A18F380E2860F88306D
:1028300048F4677081E001C0880F6A95EAF70E944A
:10284000DB1CDCCF8BE5860F833020F480E090E04A
:102850000C949511685A673120F480E090E00C9454
:10286000AB110895882321F00E94D51C0C949F1C65
:102870000895882321F00E94DB1C0C949F1C08956E
:102880008F929F92AF92BF92DF92EF92FF920F933F
:102890001F93CF93DF937C01D62FC72FFC010581B7
:1028A00002950F70128111110E94F21C0E94981C57
:1028B000882379F0112369F080E28D0F883048F089
:1028C00082E00E94811C0E94981C91E0D82ED9269B
:1028D00001C0D12CBC2EB2948FE0B8228B2D90E099
:1028E000FC01E859FF4F0C94052A8C2F807FCF7094
:1028F000882311F0C295C07F112399F0CC2309F4ED
:1029000081C180E28D0F883010F0D11104C08C2F6E
:102910000E94D51C03C08C2F0E94E51C0E949F1CA6
:1029200071C18D2F0E94D313CC2309F490C180E292
:102930008D0F883010F0D11104C08C2F0E94DB1C49
:1029400003C08C2F0E94EB1C0E949F1C80C18C2F07
:10295000807FCF70803211F0C295C07FDD2319F0E7
:10296000D130C9F022C0112371F0002341F00130B1
:1029700031F40E940B1D8C2B0E94051D68C10E9422
:102980000B1D8C2BF8C0002319F0013009F45FC136
:102990000E94081D18C0112321F0063008F057C10D
:1029A0000EC0053008F053C10EC0112351F00023B2
:1029B00031F0F701858180FF25C18F7085838C2FD1
:1029C000DAC0011130C18C2FDCC08C2F8695869522
:1029D000837019F0813061F03AC1112321F08D2FFD
:1029E0009C2F937002C080E090E00E9495113CC142
:1029F000112321F08D2F9C2F937002C080E090E076
:102A00000E94AB1131C18C2F837009F04CC01111A1
:102A100027C12D2F229526952770220F220F6D2F6B
:102A20006F70862F90E0A0E0B0E04C015D01022EB7
:102A300004C0880C991CAA1CBB1C0A94D2F7D4FFB2
:102A400012C08FE090E0A0E0B0E004C0880F991FB2
:102A5000AA1FBB1F2A95D2F7BC01CD0160957095C6
:102A60008095909503C060E070E0CB01C695C69557
:102A7000C370C23051F080F4682979298A299B29D2
:102A8000C13071F00E94C01AEBC0682979298A29E7
:102A90009B290E94D21AE4C00E94C01AC501B40149
:102AA0000E94AE1ADDC0112319F08C2F817001C075
:102AB0008695882309F4D4C02D2F2295269527705A
:102AC000220F220F6D2F6F70862F90E0A0E0B0E0F4
:102AD0004C015D01022E04C0880C991CAA1CBB1C71
:102AE0000A94D2F7D4FF12C08FE090E0A0E0B0E0EB
:102AF00004C0880F991FAA1FBB1F2A95D2F7BC01DB
:102B0000CD01609570958095909503C060E070E070
:102B1000CB01C695C695C370C23051F080F46829C8
:102B200079298A299B29C13071F00E94851B98C0A0
:102B3000682979298A299B290E94971B91C00E94A4
:102B4000851BC501B4010E94731B8AC08D2F90E0C4
:102B5000FC01E05EF109E531F10508F04FC0E858ED
:102B6000FF4F0C94052ADF708C2F8F71112331F0E9
:102B70000E940C1B8D2F0E94321469C00E942D1BD5
:102B80008D2F0E94391463C0112341F0053008F0E5
:102B90005EC08C2F8F710E94521B59C0063008F006
:102BA00056C0F7CF112339F08C2F8F710E940C1B68
:102BB0004EC01123C9F38C2F8F710E942D1B47C06B
:102BC000112329F08C2F8F710E94F71A40C00E94A8
:102BD000F21A3DC0112349F0CF718C2F0E940C1BBB
:102BE00063E08C2F0E94781C32C081E00E94811C1F
:102BF000023068F182E00E94811C29C0112331F06B
:102C0000002391F28D2F0E94B11221C0002399F26E
:102C1000D93349F4FFEF27EE83E0F15020408040A4
:102C2000E1F700C000008D2F0E94D31310C04C2F7D
:102C30004F706D2FC7010E9481050E941D1A14C09C
:102C40004C2F4F706D2FC7010E9484050DC098E076
:102C5000B91631F0B91640F086EF8B0D823020F4B2
:102C60000E947E110E94EE02DD20E1F00E94741CA1
:102C700080FD18C0F70112820E946E1C0E940C1B7E
:102C8000C7010E945E160E946E1CDF91CF911F91BA
:102C90000F91FF90EF90DF90BF90AF909F908F903B
:102CA0000C942D1BDF91CF911F910F91FF90EF900E
:102CB000DF90BF90AF909F908F9008950F931F93D8
:102CC000CF93DF93EC01988189812B813C81232B69
:102CD00031F08F3F31F481E09F3F19F403C081E070
:102CE00001C080E080FD13C0CE010E94060388234E
:102CF00071F0688179818A810E944B1C8C010E944D
:102D0000A91B0E949A1AB801CE010E944014DF91BB
:102D1000CF911F910F9108950E94F21C0E94021DF5
:102D20000E949F1C80E090E00E94951180E090E05E
:102D30000C94AB1180911601909117010E94B51D62
:102D40000C948C160E94E21C0C949A160E94401C53
:102D5000E92FE295EF704E2F50E0FA013297EE30F6
:102D6000F105B0F4E357FF4F0C94052A803F91F032
:102D700018F4803E68F40EC0843F51F40BC0803ECE
:102D800048F0813F29F406C093FB882780F9089515
:102D900080E0089581E00895CF93DF9300D000D0C4
:102DA0001F92CDB7DEB70F900F900F900F900F903E
:102DB000DF91CF910895CF93DF9300D000D000D062
:102DC000CDB7DEB726960FB6F894DEBF0FBECDBFE7
:102DD000DF91CF9108951F93CF93DF93C091980116
:102DE00016E080919901C81799F0D0E01C9FF0017E
:102DF0001D9FF00D1124E656FE4F408151816281E6
:102E00007381848195810E94DB162196C770E9CF7A
:102E1000DF91CF911F9108954091CA015091CB014C
:102E20006091CC017091CD018091CE019091CF0144
:102E30000C94DB16CF938091CF0182958F7009F0AF
:102E40005FC08091CC01882309F45AC08091980119
:102E5000B09199017091CA01A091CB014091CD012F
:102E60005091CE0191E07F3F09F090E0692FC6E0DC
:102E70008B1709F445C04115510521F0AF3F21F0F2
:102E800020E003C021E001C0262F90E020FD35C0E6
:102E9000C89FF001C99FF00D1124E656FE4F218115
:102EA0002A132BC02081271328C02281211125C07D
:102EB000238134812417350710F421503109241B54
:102EC000350B283C3105C8F42091CF012F702061CB
:102ED0002093CF0126E0289FF001299FF00D1124B7
:102EE000E156FE4F80818F70806180838AEC91E093
:102EF0000E945E16CF910C94EB1601968770B8CFA6
:102F0000CF910895AF92BF92CF92DF92EF92FF924E
:102F10000F931F93CF93DF93CDB7DEB761970FB6B3
:102F2000F894DEBF0FBECDBF8C0185E0F801DE0155
:102F30001D9601900D928A95E1F7D8014C9111965A
:102F40005C9111971296EC903091CA016091CB017F
:102F50008091CD019091CE01009731F06F3F31F417
:102F600021E03F3F19F403C021E001C020E0B22F6F
:102F7000B170BB2E20FD60C1F801C380D480A09049
:102F8000CC01AA2009F4EEC02091CF01C816D906C1
:102F900028F0D601A81BB90BCD0104C080959095EF
:102FA0008C0D9D1DFF24F394883C910580F0F12C3D
:102FB000207F09F09CC07C2DD98AC88A6E2D898912
:102FC0000E94CC168AEC91E00E945E162DC1822FE1
:102FD000807F09F054C0561314C0431312C0FE2C56
:102FE000E1100FC02F7020612093CF010E940C17B9
:102FF0008AEC91E00E945E168091CF01F8018583F2
:103000005CC1CD2831F05F3F31F481E04F3F19F4CE
:1030100003C081E001C080E080FD03C081E08E2517
:1030200002C080E090E0F82FF170FF2E80FF1CC0FE
:10303000809198012091990136E0821709F41AC114
:1030400090E0389FF001399FF00D1124E656FE4FB5
:103050006181561306C06081461303C06281E61287
:1030600003C001968770E9CFFE2CEE2009F425C13C
:103070008091CF0181608093CF01F12C1EC1561346
:1030800009C0431307C0E11005C08091CF01F801CA
:103090008583A4C04D875E878D859E850E94A61678
:1030A000882379F1EE2069F12091CF01822F82955A
:1030B0008F7090E0029774F08091CA019091CB01DB
:1030C00098878F831986DB86CA862C87CE01079660
:1030D0000E945E1686E0F801AAECB1E001900D9224
:1030E0008A95E1F70E941A170E940C170DC0561717
:1030F00071F04D875E878D859E850E94A616811191
:103100001AC0C8010E945E16FF24F394D6C0431370
:10311000F0CFE110EECF8091CF01F8018583C80197
:103120000E945E1686E0EAECF1E0DF011D928A95CE
:10313000E9F7FA2CC2C0EE2021F32091CF01822FB3
:1031400082958F7090E002972CF28091CA01909145
:10315000CB019A8389831B82DD82CC822E83CE01B0
:103160000196B6CFC816D90628F0F601E81BF90B70
:10317000CF0104C0809590958C0D9D1D883C9105D4
:1031800048F0F12C7C2DD98AC88A6E2D89890E943D
:10319000CC164AC0FE2CEE2009F4B3CF561333C030
:1031A000431331C02091CF0120FD24C0822F82958E
:1031B0008F70482F50E041155105E1F0D801159668
:1031C0002C9315974F30510549F08F5F982F9295AA
:1031D000907F822F8F70892B15968C93C8010E9447
:1031E0005E1686E0F801AAECB1E001900D928A9596
:1031F000E1F73DC086E0F801AAECB1E001900D9244
:103200008A95E1F75AC04D875E878D859E850E941D
:10321000A61681115FCF8091CF0181608093CF018D
:10322000C8010E945E1649C0EAECF1E086E0DF01C9
:103230001D928A95E9F71BC0EE2009F462CF4D87F5
:103240005E878D859E850E94A616F82E882309F438
:1032500058CF86E0F801AAECB1E001900D928A9572
:10326000E1F78AEC91E00E94AB120E941A170E94CB
:103270000C1723C04D875E878D859E850E94401C5C
:10328000292F22952F70223028F49F7039F0811158
:1032900005C00BC0243028F49F7049F4805E88304C
:1032A00020F0C8010E945E16BF2CFB2C06C0D8017E
:1032B00015969C91907F91F7F8CF8F2D61960FB660
:1032C000F894DEBF0FBECDBFDF91CF911F910F915C
:1032D000FF90EF90DF90CF90BF90AF9008951F9335
:1032E000CF93DF93CDB7DEB72C970FB6F894DEBF40
:1032F0000FBECDBF4F83588769877A878B879C879E
:10330000CE0107960E9482178823D1F09F8188857D
:103310002A853B85232B31F08F3F31F481E09F3F9D
:1033200019F403C081E001C080E080FD47C04F81F7
:10333000588569857A858B859C850E94DB163EC001
:1033400086E0FE013796DE01119601900D928A9576
:10335000E1F7FF81E8856A857B856115710531F0AC
:10336000EF3F31F481E0FF3F19F403C081E001C079
:1033700080E080FD23C02091990130E0C9010196D1
:10338000877099274091980150E084179507F1F1D3
:10339000F983EA837D836C8396E0929FD001939FAB
:1033A000B00D1124A656BE4FFE01319601900D922C
:1033B0009A95E1F7809399010E94EB1616E08091AF
:1033C000980190919901891771F1189FC0011124FA
:1033D00086569E4F0E948217882329F1E09198011A
:1033E0001E9FF0011124E656FE4F408151816281FB
:1033F0007381848195810E94DB168091980190E011
:1034000001968770992780939801D9CF0E94A216C0
:103410001092990110929801EAECF1E086E0DF0148
:103420001D928A95E9F72C960FB6F894DEBF0FBE71
:10343000CDBFDF91CF911F910895EF92FF920F932F
:103440001F93CF93DF938C01892B09F46CC0F12C6F
:10345000EE24E394E8012196F8018491843740F446
:10346000843008F051C0813081F0823019F15BC0A6
:10347000853709F444C0A8F19CE7980F903708F00D
:1034800052C08F770E94D31341C00E5F1F4FFE01C1
:10349000849190E2980F983050F48770FE2D01C00F
:1034A000FF0F8A95EAF78F2F0E94F51C14C00E9427
:1034B000B1122DC00E5F1F4FFE01849190E2980F54
:1034C000983060F48770FE2D01C0FF0F8A95EAF7EF
:1034D0008F2F0E94FB1C0E949F1C19C00E94D313B7
:1034E00016C00E5F1F4FFE01C491CC2381F08FE9FF
:1034F0009FE00197F1F700C00000C150F6CF0E5FCA
:103500001F4FFE01F49003C00E94B1128E018F2D57
:10351000882309F49FCFEFE9FFE03197F1F700C06E
:1035200000008150F5CFDF91CF911F910F91FF9057
:10353000EF900895089508950C949B1A0C949C1A8A
:103540000E949E1A609310027093110280931202DF
:10355000909313020C948C160C94A01A0F931F9343
:103560000091100210911102209112023091130269
:10357000602B712B822B932B1F910F910C94A01A0F
:103580000F931F93009110021091110220911202CB
:103590003091130260237123822393231F910F9193
:1035A0000C94A01A0F931F93009110021091110216
:1035B00020911202309113026027712782279327EE
:1035C0001F910F910C94A01A0C949B1A0E94E41A5C
:1035D00060930C0270930D0280930E0290930F0281
:1035E0000C948C1660E070E0CB010C94E61A0F93FB
:1035F0001F9341E050E060E070E08A019B0104C04D
:10360000000F111F221F331F8A95D2F7C901B8017D
:103610001F910F910C94E61A0F931F9341E050E015
:1036200060E070E004C0440F551F661F771F8A9545
:10363000D2F780910C0290910D02A0910E02B091F0
:103640000F028A019B01082B192B2A2B3B2BC90146
:10365000B8011F910F910C94E61A0F931F9341E04C
:1036600050E060E070E004C0440F551F661F771FF4
:103670008A95D2F7409550956095709580910C028F
:1036800090910D02A0910E02B0910F028A019B0150
:10369000082319232A233B23C901B8011F910F9145
:1036A0000C94E61A0F931F9341E050E060E070E045
:1036B00004C0440F551F661F771F8A95D2F780916B
:1036C0000C0290910D02A0910E02B0910F028A019E
:1036D0009B01082719272A273B27C901B8011F91F9
:1036E0000F910C94E61A0F931F9300910C02109106
:1036F0000D0220910E0230910F02602B712B822B54
:10370000932B1F910F910C94E61A0F931F93009126
:103710000C0210910D0220910E0230910F026023D5
:103720007123822393231F910F910C94E61A0F9318
:103730001F9300910C0210910D0220910E02309106
:103740000F0260277127822793271F910F910C94F6
:10375000E61A089528E0929F800D1124E82FE6953F
:10376000E695E695877051E001C0550F8A95EAF716
:1037700085E0E89FF0011124E053FE4F20E030E0A7
:1037800070E04081CB01022E02C0969587950A9485
:10379000E2F78170819584278523842781932F5FA9
:1037A0003F4F2530310569F7089528E0929F800D3D
:1037B0001124682F669566956695982F977085E019
:1037C000689FB001112440E050E080E0FB01E40F6D
:1037D000F51FE053FE4F208130E0092E02C03695E0
:1037E00027950A94E2F721703327042E01C0220F97
:1037F0000A94EAF7822B4F5F5F4F4530510531F74E
:103800000895CF92DF92EF92FF920F931F93CF9381
:10381000DF938C01C0900C02D0900D02E0900E025C
:10382000F0900F028091100290911102A09112026B
:10383000B0911302C82AD92AEA2AFB2ACFE1D0E0A4
:10384000D701C6010C2E04C0B695A795979587950C
:103850000A94D2F780FD04C0219790F780E007C05A
:10386000B8018C2F0E94A2050197B1F38C2FDF9134
:10387000CF911F910F91FF90EF90DF90CF9008951F
:10388000CF93DF93EC010E94011CBE010E94A205B0
:10389000DF91CF9108951F93CF93DF93EB01909128
:1038A0009701992321F0CB010E94401C13C088236B
:1038B00049F0CB010E94011C182F682FCE010E94F5
:1038C000AA1B04C0CB010E94D51B182FBE01812F5B
:1038D0000E94A205DF91CF911F910895809114025B
:1038E0008595859585950895809114028770089532
:1038F00098E0899F90011124262B209314020C94A8
:103900000C1B209114028095822380931402982F1F
:10391000977069F430E0482F082E000C550B2417DF
:10392000350729F08595859585950C942D1B08956F
:1039300090911402977081E009F480E00895E0917D
:103940001601F0911701809120028083E091160109
:10395000F0911701908180911F02892B8083E09163
:103960001601F0911701908180911E02892B8083AE
:1039700080911502882381F0E0911601F0911701E2
:103980009081892B808380911601909117010E946C
:103990007E1D8111109215028091160190911701E0
:1039A0000C948A1180912002089590912002892B15
:1039B000809320020895809590912002892380931E
:1039C0002002089510922002089590911F02892BE1
:1039D00080931F020895809590911F028923809300
:1039E0001F02089510921F02089590911E02892BC4
:1039F00080931E020895809590911E0289238093E2
:103A00001E02089510921E020895809315020895D3
:103A100010921502089580911502089580E090E0BB
:103A20000E94262A21E08D3E9E4F09F020E0822F41
:103A3000089582E090E00C94182A83E090E00C94C2
:103A4000182A84E090E00C94182A682F84E090E013
:103A50000C942C2AAB01BC018FE090E00C943E2A20
:103A6000AB01BC0183E190E00C943E2A60E070E081
:103A7000CB010C94301D60E070E0CB010E942A1D48
:103A80000C94361D6DEE7EEF80E090E00E944A2A95
:103A900060E082E090E00E942C2A60E083E090E009
:103AA0000E942C2A109210021092110210921202FF
:103AB0001092130260E084E090E00E942C2A60E003
:103AC00085E090E00E942C2A60E086E090E00E9471
:103AD0002C2A6FEF87E090E00E942C2A40E050E013
:103AE000BA0188E090E00E943E2A60E08DE090E01C
:103AF0000E942C2A0C943B1D0C94421DFC01329612
:103B000097E080E0915029F021912223D9F38F5F33
:103B1000F9CF08959C01FC0132969FEF80E041911E
:103B2000461789F09F3F19F4411101C0982F8F5F0C
:103B30008630A9F79F3F39F0F901E90FF11D97FD94
:103B4000FA956283089508959C012A5F3F4FFC0116
:103B50004281461301C01282019682179307B9F77A
:103B600008950C948A1D0C94A41D029626E0FC0175
:103B700011922A95E9F7089508950C94BC1D0C94B0
:103B8000BC1DCF930E94BF1D0E9431090E94BD1D24
:103B9000C0E08C2F0E947409811104C0CF5FCC302B
:103BA000C1F701C081E0CF9108950C94BC1D0C9425
:103BB000D51D0E94D71D80916E02843049F110926C
:103BC000220220E488E190E00FB6F894A895809353
:103BD00060000FBE2093600080E00E94EE020E9411
:103BE000D71D83B7817F846083BF83B7816083BF24
:103BF0007894889583B78E7F83BF0FB6F894A89585
:103C000080916000886180936000109260000FBE18
:103C100008950C94BC1D0E94A2160E947E110E9461
:103C2000EE020C94091E1F920F920FB60F921124F0
:103C30008F939F93AF93BF9380912202811113C002
:103C40008091640290916502A0916602B091670232
:103C50004196A11DB11D8093640290936502A093CB
:103C60006602B0936702BF91AF919F918F910F90C1
:103C70000FBE0F901F90189582E084BD93E095BD14
:103C80009AEF97BD80936E0008952FB7F8948091B6
:103C9000640290916502A0916602B09167022FBF05
:103CA0000895CF92DF92EF92FF920F931F932FB759
:103CB000F89440916402509165026091660270919F
:103CC00067022FBF6A017B01EE24FF248C0120E0F4
:103CD00030E0C016D106E206F30610F44150510957
:103CE0009A01281B390BC9011F910F91FF90EF908A
:103CF000DF90CF90089578941F920F920FB60F9295
:103D000011248F939F93AF93BF93809164029091FE
:103D10006502A0916602B09167020196A11DB11DD6
:103D20008093640290936502A0936602B093670249
:103D3000BF91AF919F918F910F900FBE0F901F90E9
:103D4000189587E797E790930108809300089AE019
:103D500088E10FB6F894A895809360000FBE909309
:103D60006000FFCF0E940E1D811102C00E947C1DC9
:103D70000E94191D809321020E94211D90E09093C2
:103D80006902809368020E941D1D682F70E080E028
:103D900090E00C94AC1A0F931F9341E050E060E068
:103DA00070E08A019B0104C0000F111F221F331F06
:103DB0008A95D2F7C901B8010E94AC1A1F910F91E0
:103DC0000C94A2168732D8F58E3108F07DC08E3063
:103DD00009F467C098F4873009F455C08B3009F4B2
:103DE00076C0863009F077C080912102817F8E7F76
:103DF0008093210281E0809323020895863109F4A3
:103E000066C068F4803109F066C08091210283FBAE
:103E1000222720F991E0922790FB83F94BC089314A
:103E200009F455C08B3109F056C08091210281FB05
:103E3000222720F991E0922790FB81F93BC088333B
:103E400009F445C048F4893209F443C0853309F4C4
:103E500040C08732F1F13FC08334D9F120F48A3376
:103E6000D0F1895332C08834B1F50E94A2162FEFE9
:103E700083ED90E3215080409040E1F700C00000C6
:103E80000E94A11E24C080912102982F90959170CC
:103E900090FB80F980932102911119C0897F877F5F
:103EA00010C08091210282FB222720F991E0922705
:103EB00090FB82F980932102992349F0809121029D
:103EC00081608093210203C08D510E94CB1E81E04E
:103ED000089580E0FACF80E0089580E008950C9482
:103EE0006D1FCF93C82F80912302882319F0813052
:103EF00049F031C0E0911601F091170180818232C2
:103F000061F507C0E0911601F091170180818232BE
:103F100061F48C2F0E946F1F811104C08C2F0E94AE
:103F2000E21E17C081E090E014C08C2F0E946D1F2C
:103F300081110EC0C43149F018F4CB3049F00FC0E4
:103F4000C93219F0C83321F00AC01092230207C009
:103F500081E0817006C01092230280E002C080E000
:103F6000F8CFCF91089580912C02089508950F9372
:103F70001F93CF93DF9300D01F92CDB7DEB78C0194
:103F80000E94D921823011F0843021F584E08983A8
:103F90001B830A8382E08093E9008FEF9091E80011
:103FA000815095FD06C095ED9A95F1F700008111BD
:103FB000F5CF8091E80085FF0DC040E050E063E060
:103FC00070E0CE0101960E94F6218091E8008E7784
:103FD0008093E8000F900F900F90DF91CF911F9189
:103FE0000F910895CF93DF9300D01F92CDB7DEB726
:103FF00020916E02243031F523E029838058910905
:104000009B838A8382E08093E9008FEF9091E800A0
:10401000815095FD06C095ED9A95F1F7000081114C
:10402000F5CF8091E80085FF0DC040E050E063E0EF
:1040300070E0CE0101960E94F6218091E8008E7713
:104040008093E8000F900F900F90DF91CF9108952B
:10405000CF93DF93EC010E94D921823011F084309C
:1040600039F581E08093E9008FEF9091E80081506D
:1040700095FD06C095ED9A95F1F700008111F5CFF9
:104080008091E80085FF14C040E050E068E070E0F7
:10409000CE010E94F6218091E8008E778093E8009F
:1040A00088E0FE01A4E2B2E001900D928A95E1F76A
:1040B000DF91CF91089580916D02811109C00E9416
:1040C00087230E94E4238091E20084608093E200D1
:1040D000089510926D020895089508950C940B1E92
:1040E00042E061EC81E00E94002342E261EC82E068
:1040F0000C94002380917002833009F453C030F493
:10410000813071F0823009F48CC008958A3009F44E
:1041100078C08B3009F45EC0893009F09AC020C0A5
:1041200080916F02813A09F094C08091E800877F06
:104130008093E8008091730290917402892B21F49E
:1041400068E084E292E003C060E080E090E070E02C
:104150000E9441228091E8008B778093E8000895C7
:1041600080916F02813209F074C080917302909146
:104170007402029708F06DC08091E800877F8093F9
:10418000E8008091E80082FD05C080916E028111F7
:10419000F8CF5FC08091F10080932C028091E800FD
:1041A0008B7753C080916F02813A09F052C08091A1
:1041B000730290917402892B09F04BC08091E80042
:1041C000877F8093E8008091E80080FFFCCF80919A
:1041D000220136C080916F028132D9F5809173023D
:1041E00090917402892BA9F58091E800877F8093D4
:1041F000E8000E94352380917102809322010C9483
:10420000A21680916F02813221F58091E800877FAC
:104210008093E8000E9435238091720280932D02E2
:10422000089580916F02813AA1F48091E800877F20
:104230008093E8008091E80080FFFCCF80912D0200
:104240008093F1008091E8008E778093E8000C94D1
:104250003523089584B7877F84BF0FB6F894A89557
:1042600080916000886180936000109260000FBEB2
:1042700080E880936100109261000E94C8110E9442
:1042800087230E94E4238091E20084608093E2000F
:1042900078940E9479260E94CE1188E191E00E94D4
:1042A000791180916E02853069F40E94D91D809148
:1042B0006C028823B1F30E94C11D882391F30E94F0
:1042C000E021EFCF0E94D6110E94BD0FEACF0C94DF
:1042D0006921292F332723303105C9F060F42130BB
:1042E000310581F02230310509F04AC08BE390E0BE
:1042F0002CE534E049C02132310511F1223231057B
:1043000079F13EC082E190E027E934E03DC0992791
:104310008130910561F040F08230910559F00397AA
:1043200079F5ECE2F4E008C0E8E5F4E005C0E8E483
:10433000F4E002C0E2E3F4E0849190E09F0124C045
:104340006115710541F061307105D1F489E090E0AB
:1043500027E834E019C089E090E02EE634E014C08C
:104360006115710541F06130710551F486E390E00B
:1043700029EA34E009C080E490E02FED34E004C085
:1043800080E090E020E030E0FA013183208308955E
:104390000895CF93C82F0E94C821C0932E02CF91B9
:1043A000089580916E02843011F081E0089582E0DA
:1043B000089580912E02811102C00C94D12108959C
:1043C00080E189BD82E189BD09B400FEFDCF809105
:1043D000D8008F7D8093D8008091E0008260809328
:1043E000E0008091E00081FDFCCF0895CF92DF9244
:1043F000EF92FF920F931F93CF93DF93EC018B010A
:104400007A010E945423811133C0E114F10439F080
:10441000F70180819181081B190BC80FD91FC12C8E
:10442000D12C0115110519F18091E80085FD16C008
:104430008091E8008E778093E800E114F10449F060
:10444000F70180819181C80ED91ED182C08285E09A
:104450000FC00E945423882321F30AC089918093BE
:10446000F10001501109FFEFCF1ADF0ADACF80E027
:10447000DF91CF911F910F91FF90EF90DF90CF9040
:10448000089520917502309176022617370748F07B
:104490006115710539F42091E8002E772093E8002A
:1044A00001C0B901FC0120E06115710579F180912D
:1044B0006E028823F1F18530F1F18091E80083FDEF
:1044C0003CC08091E80082FD2EC08091E80080FF12
:1044D000EBCF2091F3008091F20090E0922B6115D8
:1044E000710551F08830910538F421912093F10045
:1044F000615071090196F3CF21E0089709F020E09F
:104500008091E8008E778093E800CECF2111CFCF45
:104510000AC080916E02882361F0853061F080913D
:10452000E80083FD0AC08091E80082FFF2CF80E0BE
:10453000089582E0089583E0089581E00895209130
:104540007502309176022617370748F0611571051C
:1045500039F42091E8002E772093E80001C0B901DA
:10456000FC0120E06115710591F180916E028823B4
:1045700009F440C0853009F43FC08091E80083FD14
:104580003DC08091E80082FD2FC08091E80080FF4F
:10459000E9CF2091F3008091F20090E0922B611519
:1045A000710559F08830910540F424912093F10071
:1045B0003196615071090196F2CF21E0089709F018
:1045C00020E08091E8008E778093E800CBCF211126
:1045D000CCCF0AC080916E02882361F0853061F0F3
:1045E0008091E80083FD0AC08091E80082FFF2CF4D
:1045F00080E0089582E0089583E0089581E00895C1
:10460000982F973068F59093E900981739F07091DA
:10461000EC002091ED005091F00003C0242F762F84
:1046200050E021FD02C09F5FECCF3091EB003E7F58
:104630003093EB003091ED003D7F3093ED003091F1
:10464000EB0031603093EB007093EC002093ED00B1
:104650005093F0002091EE0027FDE5CF80E0089513
:104660008F708093E90081E0089580916F0287FF49
:1046700011C08091E80082FD05C080916E02811119
:10468000F8CF11C08091E8008B770BC080916E024B
:10469000882349F08091E80080FFF8CF8091E800FE
:1046A0008E778093E80008952091E4003091E50032
:1046B00095E64091EC00842F817040FF23C08091EB
:1046C000E80080FD1DC080916E02882399F085303E
:1046D00099F08091EB0085FD11C04091E40050916C
:1046E000E5002417350729F3915011F09A01E1CF25
:1046F00084E0089582E0089583E0089581E00895BC
:1047000080E008954091E80042FFDDCF08950E94C7
:10471000F5230E94FD23E0EEF0E08081816080833C
:10472000E8EDF0E080818F77808319BCA7EDB0E0E1
:104730008C918E7F8C9380818F7E808310926D020E
:1047400008950F931F93CF93DF930E94F5230E9448
:10475000FD23C8EDD0E088818F77888388818068C9
:10476000888388818F7D888319BC10926E02109295
:104770006A0210926C0210926B0200EE10E0F801D7
:1047800080818B7F808388818160888342E060E0C4
:1047900080E00E940023E1EEF0E080818E7F808344
:1047A000E2EEF0E080818160808380818860808398
:1047B000F80180818E7F8083888180618883DF918A
:1047C000CF911F910F910895E8EDF0E080818F7EE9
:1047D0008083E7EDF0E080818160808384E082BFA8
:1047E00081E080936D020C94A123E8EDF0E08081DC
:1047F0008E7F80831092E20008951092DA0010926A
:10480000E10008951F920F920FB60F9211242F937B
:104810003F934F935F936F937F938F939F93AF9348
:10482000BF93EF93FF938091E10082FF0BC08091D3
:10483000E20082FF07C08091E1008B7F8093E1005E
:104840000E9478268091DA0080FF1FC08091D800F6
:1048500080FF1BC08091DA008E7F8093DA00809108
:10486000D90080FF0DC080E189BD82E189BD09B416
:1048700000FEFDCF81E080936E020E945B2005C0A8
:1048800019BC10926E020E9469208091E10080FFA5
:1048900019C08091E20080FF15C08091E2008E7FF8
:1048A0008093E2008091E20080618093E200809139
:1048B000D80080628093D80019BC85E080936E0296
:1048C0000E946D208091E10084FF30C08091E20061
:1048D00084FF2CC080E189BD82E189BD09B400FE5E
:1048E000FDCF8091D8008F7D8093D8008091E1002A
:1048F0008F7E8093E1008091E2008F7E8093E200C2
:104900008091E20081608093E20080916A028823B6
:1049100011F084E007C08091E30087FD02C081E0D0
:1049200001C083E080936E020E946E208091E100BE
:1049300083FF29C08091E20083FF25C08091E100C0
:10494000877F8093E10082E080936E0210926A027A
:104950008091E1008E7F8093E1008091E2008E7F64
:104960008093E2008091E20080618093E20042E067
:1049700060E080E00E9400238091F00088608093D6
:10498000F0000E946C20FF91EF91BF91AF919F9139
:104990008F917F916F915F914F913F912F910F90E8
:1049A0000FBE0F901F9018951F920F920FB60F9287
:1049B00011242F933F934F935F936F937F938F9324
:1049C0009F93AF93BF93CF93DF93EF93FF93C091E8
:1049D000E900CF708091EC00D82FD17080FDD0E835
:1049E0001092E9008091F000877F8093F000789426
:1049F0000E9418251092E9008091F0008860809351
:104A0000F000CD2BCF70C093E900FF91EF91DF91C3
:104A1000CF91BF91AF919F918F917F916F915F9156
:104A20004F913F912F910F900FBE0F901F901895AF
:104A30001F93CF93DF93CDB7DEB7AA970FB6F89445
:104A4000DEBF0FBECDBFEFE6F2E08091F1008193B3
:104A500022E0E737F207C9F70E947A208091E80048
:104A600083FF2EC180916F0290917002492F50E018
:104A70004A30510508F024C1FA01E556FF4F0C9465
:104A8000052A803821F0823809F01AC108C08091C7
:104A90006B0290916C02992389F082600FC0809123
:104AA00073028F70873008F00BC18093E90080910A
:104AB000EB0085FB882780F91092E9009091E800CF
:104AC000977F9093E8008093F1001092F100D1C09D
:104AD000282F2D7F09F0F4C0882319F0823061F06F
:104AE000EFC080917102813009F0EAC0933009F083
:104AF00080E080936C022EC08091710281112AC0E7
:104B0000809173028F702FEF280F263008F0D8C0E5
:104B10008093E9002091EB0020FF1CC0933021F42A
:104B20008091EB00806214C09091EB0090619093B3
:104B3000EB0021E030E0A90102C0440F551F8A9527
:104B4000E2F74093EA001092EA008091EB0088605F
:104B50008093EB001092E9008091E800877F8093BA
:104B6000E8000E943523ACC08111AAC010917102E7
:104B70001F778091E3008078812B8093E300809100
:104B8000E800877F8093E8000E9435238091E80049
:104B900080FFFCCF8091E30080688093E3001111D7
:104BA00002C082E001C083E080936E0289C0805819
:104BB000823008F085C080917102909172028C3D24
:104BC00053E0950779F583E08A838AE289834FB7BA
:104BD000F894DE01139620E03EE051E2E32FF0E08E
:104BE00050935700E49120FF03C0E295EF703F5FC0
:104BF000EF708E2F90E0EA3010F0C79601C0C0969B
:104C00008D939D932F5F243149F74FBF8091E8002A
:104C1000877F8093E8006AE270E0CE0101960E94EF
:104C2000412216C06091730270917402AE014F5F11
:104C30005F4F0E946721BC01892B09F441C090910C
:104C4000E800977F9093E80089819A810E949F22D3
:104C50008091E8008B778093E80032C0803881F53E
:104C60008091E800877F8093E80080916A028093BA
:104C7000F1008091E8008E7772CF811121C0809180
:104C800071029091720299270297D4F48091E80002
:104C9000877F8093E8008091710280936A020E946E
:104CA000352380916A02811106C08091E30087FD5F
:104CB00002C081E001C084E080936E020E947020F7
:104CC0008091E80083FF0AC08091E800877F80938D
:104CD000E8008091EB0080628093EB00AA960FB60B
:104CE000F894DEBF0FBECDBFDF91CF911F91089525
:104CF0000895CF9380916E028823A1F0C091E900BE
:104D0000CF709091EC00892F817090FD80E8C82BC6
:104D10001092E9008091E80083FD0E941825CF7071
:104D2000C093E900CF9108955058BB27AA270E944D
:104D3000AC260C9457280E94492838F00E9450282D
:104D400020F039F49F3F19F426F40C941F280EF438
:104D5000E095E7FB0C941928E92F0E94682858F386
:104D6000BA17620773078407950720F079F4A6F550
:104D70000C948A280EF4E0950B2EBA2FA02D0B016F
:104D8000B90190010C01CA01A0011124FF27591B90
:104D900099F0593F50F4503E68F11A16F040A22F96
:104DA000232F342F4427585FF3CF46953795279507
:104DB000A795F0405395C9F77EF41F16BA0B620B06
:104DC000730B840BBAF09150A1F0FF0FBB1F661F4D
:104DD000771F881FC2F70EC0BA0F621F731F841F90
:104DE00048F4879577956795B795F7959E3F08F0B6
:104DF000B0CF9395880F08F09927EE0F9795879578
:104E000008950E9415270C9457280E94502858F0A6
:104E10000E94492840F029F45F3F29F00C9419289A
:104E200051110C948B280C941F280E94682868F359
:104E30009923B1F3552391F3951B550BBB27AA2753
:104E400062177307840738F09F5F5F4F220F331F8D
:104E5000441FAA1FA9F335D00E2E3AF0E0E832D055
:104E600091505040E695001CCAF72BD0FE2F29D058
:104E7000660F771F881FBB1F261737074807AB072A
:104E8000B0E809F0BB0B802DBF01FF2793585F4F9F
:104E90003AF09E3F510578F00C9419280C948B2819
:104EA0005F3FE4F3983ED4F3869577956795B79581
:104EB000F7959F5FC9F7880F911D9695879597F98C
:104EC0000895E1E0660F771F881FBB1F6217730705
:104ED0008407BA0720F0621B730B840BBA0BEE1F1A
:104EE00088F7E095089529F416F00C9419280C948D
:104EF0008A280C941F280E947028A8F39638A0F7DF
:104F000007F80F92E8942BE33AEA48EB5FE70E9438
:104F10001D290F920F920F924DB75EB70F920E940C
:104F2000D328EAE4F1E00E9422284F915F91EF91AB
:104F3000FF91E595EE1FFF1F49F0FE57E0684427FB
:104F4000EE0F441FFA95E1F74195550B0E949D28FD
:104F50000F9007FE0C94912808950E94702888F005
:104F60009F5798F0B92F9927B751B0F0E1F0660F2D
:104F7000771F881F991F1AF0BA95C9F714C0B1306E
:104F800091F00E948A28B1E008950C948A28672F36
:104F9000782F8827B85F39F0B93FCCF3869577959D
:104FA0006795B395D9F73EF4909580957095619586
:104FB0007F4F8F4F9F4F0895E89409C097FB3EF4B1
:104FC00090958095709561957F4F8F4F9F4F992356
:104FD000A9F0F92F96E9BB279395F69587957795D4
:104FE0006795B795F111F8CFFAF4BB0F11F460FF94
:104FF0001BC06F5F7F4F8F4F9F4F16C0882311F0EC
:1050000096E911C0772321F09EE8872F762F05C0FF
:10501000662371F096E8862F70E060E02AF09A959A
:10502000660F771F881FDAF7880F9695879597F98F
:10503000089597F99F6780E870E060E008959FEF1A
:1050400080EC0895DF93CF931F930F93FF92EF921D
:10505000DF927B018C01689406C0DA2EEF010E947A
:105060001A29FE01E894A591259135914591559114
:10507000A6F3EF010E94AC26FE019701A801DA9485
:1050800069F7DF90EF90FF900F911F91CF91DF9123
:10509000089500240A94161617061806090608959E
:1050A00000240A9412161306140605060895092E04
:1050B0000394000C11F4882352F0BB0F40F4BF2B73
:1050C00011F460FF04C06F5F7F4F8F4F9F4F0895B3
:1050D00057FD9058440F551F59F05F3F71F04795A9
:1050E000880F97FB991F61F09F3F79F0879508958E
:1050F000121613061406551FF2CF4695F1DF08C0AD
:10510000161617061806991FF1CF869571056105C9
:1051100008940895E894BB2766277727CB0197F971
:1051200008959B01AC0160E070E080E89FE30C947F
:1051300001270C9419280C947C290E947028D8F31C
:105140009923C9F3940F511DA3F39150504094F04B
:1051500059F0882332F0660F771F881F9150504016
:10516000C1F79E3F51052CF7880F911D96958795A5
:1051700097F908955F3FACF0983E9CF0BB27869569
:1051800077956795B79508F4B1609395C1F7BB0F14
:1051900058F711F460FFE8CF6F5F7F4F8F4F9F4F3D
:1051A000E3CF0C948B28FA01DC01AA0FBB1F9B01F3
:1051B000AC01BF5728F4222733274427507820C05A
:1051C000B75190F4AB2F0024469537952795011CD5
:1051D000A395D2F3002071F0220F331F441FB39523
:1051E000DAF30ED00C94942661307105A0E88A079A
:1051F000B94630F49B01AC01662777278827907861
:10520000309621F0208331834283538308950E9496
:105210001A290C9457280E94492838F00E945028D7
:1052200020F0952311F00C9419280C941F281124B8
:105230000C948B280E94682870F3959FC1F3950FFA
:1052400050E0551F629FF001729FBB27F00DB11D0A
:10525000639FAA27F00DB11DAA1F649F6627B00D9A
:10526000A11D661F829F2227B00DA11D621F739F83
:10527000B00DA11D621F839FA00D611D221F749F91
:105280003327A00D611D231F849F600D211D822FD8
:10529000762F6A2F11249F5750409AF0F1F08823FF
:1052A0004AF0EE0FFF1FBB1F661F771F881F91502C
:1052B0005040A9F79E3F510580F00C9419280C949A
:1052C0008B285F3FE4F3983ED4F3869577956795F6
:1052D000B795F795E7959F5FC1F7FE2B880F911D56
:1052E0009695879597F908959F930E948C290F9022
:1052F00007FCEE5F0C94B5299F3F31F0915020F4EC
:10530000879577956795B795880F911D96958795A1
:1053100097F908950C941F280E947028D8F3E894F8
:10532000E0E0BB279F57F0F02AED3FE049EC06C0D4
:10533000EE0FBB0F661F771F881F28F0B23A620777
:105340007307840728F0B25A620B730B840BE39542
:105350009A9572F7803830F49A95BB0F661F771FC5
:10536000881FD2F790480C947E29EF93E0FF07C086
:10537000A2EA2AED3FE049EC5FEB0E94AC260E94D6
:1053800057280F90039401FC9058E2E7F1E00C9449
:10539000C9299F938F937F936F93FF93EF939B0103
:1053A000AC010E940729EF91FF910E9422282F91C2
:1053B0003F914F915F910C940729AA1BBB1B51E1B0
:1053C00007C0AA1FBB1FA617B70710F0A61BB70B75
:1053D000881F991F5A95A9F780959095BC01CD011A
:1053E000089597FB072E16F4009407D077FD09D097
:1053F0000E94DD2907FC05D03EF4909581959F4FD2
:105400000895709561957F4F0895EE0FFF1F0590E9
:10541000F491E02D0994FC014150504030F001908E
:105420000616D1F73197CF01089588279927089557
:10543000F999FECF92BD81BDF89A992780B508955C
:10544000A6E1B0E044E050E00C94522AA8E1B0E0BC
:1054500042E050E00C94522A262FF999FECF92BDDB
:1054600081BDF89A019700B4021639F01FBA20BD29
:105470000FB6F894FA9AF99A0FBE08950396272F5B
:105480000E942D2A0E942C2A252F0E942D2A242F8B
:105490000C942D2A0196272F0E942D2A0C942C2A39
:1054A000DC01CB01FC01F999FECF06C0F2BDE1BDE4
:1054B000F89A319600B40D9241505040B8F70895D3
:0454C000F894FFCF8E
:1054C4003F0100400106400101010201191A1B1CA1
:1054D4001D1E1F2021221602B31F2820B61FF21FF3
:1054E400B71F01F5F6F73133323666F49497C634B4
:0854F40035000000000000007B
:00000001FF
